:100000000C943A000C9457000C9457000C94570031
:100010000C9457000C9457000C9457000C94570004
:100020000C9457000C9457000C9457000C945700F4
:100030000C9457000C9457000C9457000C945700E4
:100040000C9457000C9457000C9457000C945700D4
:100050000C9457000C9457000C9457000C945700C4
:100060000C9457000C9457000C9457000C945700B4
:100070000C94570011241FBECFEFD4E0DEBFCDBFDC
:1000800013E0A0E0B1E0E4EEFFE002C005900D92C5
:10009000A239B107D9F713E0A2E9B3E001C01D927C
:1000A000A93AB107E1F70E940A070C94F0070C94F3
:1000B0000000E1E6F0E080E880831082A89584B734
:1000C000877F84BFE0E6F0E08081886180831082D2
:1000D00008950C948F010C94B0010C9495010C942C
:1000E0009B010C94A1010E94A1010E949B01882305
:1000F000E1F38CE291E00197F1F70E948F01811109
:100100000C946B0008950C94B701CF93DF9300D04B
:100110001F92CDB7DEB780ED90E09A83898388E0A7
:100120008B83509A589A0E9464018FE690E00E9457
:10013000FB0081E090E00E94530161E070E081E00B
:1001400090E00E943F010E942B01CE0101960E9487
:1001500077010F900F900F90DF91CF910895CF937B
:10016000DF93D62FFB0160E070E0A1E0B0E05E2FEE
:100170005D1B5417B8F4C191BD010C2E02C0660F6F
:10018000771F0A94E2F76F5F7F4F76956795680F48
:10019000791F02C076956795CA95E2F76F3F7105A2
:1001A00009F028F7F9016083852FDF91CF91089539
:1001B0001092800084E0809381001092850010925C
:1001C0008400089580918400909185000895AC0189
:1001D00080918400909185009C01241B350B283E62
:1001E0003340B0F708952091840030918500820F4C
:1001F000931F0C94E700CF93DF931F92CDB7DEB728
:100200009E012F5F3F4F45E068E371E00E94AF0021
:1002100091E0980F909300019981915097BD18BC7F
:1002200095B5977039F025B5909100019770287FAA
:10023000922B95BD298130E0E82FF0E0E85CFE4F7D
:10024000C901008002C0880F991F0A94E2F70F903D
:10025000DF91CF91089585B3897F85BB95B5809156
:1002600000018770987F892B85BD089585B5887FAB
:1002700085BD089585B382FB882780F9089500978E
:1002800019F0019741F0089584B56295660F660FE5
:10029000607C8F7305C084B563706295607F8F7CCE
:1002A000682B64BD0895009741F0019759F484B517
:1002B0008E7F84BD84B5826002C084B58C7F84BD8E
:1002C00081E0089580E0089514BC15BC16BC18BCEC
:1002D00081E090E00E94530181E008959C0121504B
:1002E00031093093CD0081508093CC000895CF9395
:1002F000DF93EC01888199810E946E018A819BEFD6
:10030000980F943008F088E098E19093C9008550E8
:10031000880F8093CA0081E0DF91CF91089580918A
:10032000C800881F8827881F08958091C80085FB12
:10033000882780F908958091C80086FB882780F976
:100340000895CF93C82F0E9495018823E1F39091DF
:10035000C80090649093C800C093CE00CF910895D8
:100360008091C80087FFFCCF8091CE000895CF9385
:10037000DF93EC018991882319F00E94A101FACF43
:10038000DF91CF9108958530A0F4673090F421E09B
:1003900030E0062E01C0220F0A94EAF7E82FF0E0C1
:1003A000ED56FC4F822F8095908189234111822B3D
:1003B00080830895853088F4673078F4E82FF0E082
:1003C000ED56FC4F21E030E0062E01C0220F0A94CA
:1003D000EAF79081922381E009F480E0089560912A
:1003E0009203E62FF0E0ED56FC4F80810E943E0222
:1003F000809192038F5F853018F480939203089563
:100400001092920308951092930310929403109205
:100410009503109296031092970308950E941C0270
:100420000C940302FC01FF2784A1892B84A385A1DE
:10043000892B85A381E00895CF93DF93C7E4D1E0B2
:10044000899199910E94120281E0C535D807C1F7C0
:1004500083E090E40E94120280E090E80E94120281
:1004600083E090E10E94120283E090E80E94120271
:1004700083E090E2DF91CF910C941202E091980317
:10048000F0E0EE0FFF1FE35CFE4F20813181F901A8
:10049000FF2795A1932B95A3E7E4F1E0208131811B
:1004A000D901BB2780FF07C095962C919597932F74
:1004B0009095922304C095969C919597932B959631
:1004C0009C938695329691E0E535F90739F7E62F4A
:1004D000F0E0EE0FFF1FE35CFE4F80819181FC0195
:1004E000FF2725A1892F8095822385A360939803F8
:1004F00008956230710511F160F46130710551F5B4
:10050000FC01FF2784A19095892384A385A18923D9
:100510001EC06330710541F064307105D9F4FC01EF
:10052000FF2784A1892B10C0FC01FF2784A1892B00
:1005300084A325A1892F8095822309C0FC01FF2770
:1005400084A1292F2095822384A385A1892B85A3AB
:1005500081E0089580E00895E82FF0E0EE0FFF1F9E
:10056000E756FC4F8081882321F0818191E0892723
:1005700001C080E081700895E82FF0E0EE0FFF1FCA
:10058000E756FC4F8081811102C0818101C080E06B
:1005900081700895E82FF0E0EE0FFF1FE756FC4F43
:1005A00080810895E82FF0E0EE0FFF1FE756FC4F23
:1005B000908181E0892708954F925F927F928F9278
:1005C0009F92AF92BF92CF92DF92EF92FF920F93E2
:1005D0001F93CF93DF9300D0CDB7DEB759E9452EF7
:1005E00053E0552E6AE9E62E63E0F62E75E5A72E58
:1005F00071E0B72EE6E07E2EF2018081F701808364
:10060000F501019111915F016801DD24F60184A1DA
:10061000812E992425A130E02821392141E0232B86
:1006200009F440E090E088219921892B29F04423A6
:1006300041F024E030E00AC0442331F022E030E011
:1006400005C023E030E002C021E030E064E070E06B
:10065000C80129833A830E94790262E070E0C801F0
:100660000E947902872D8A95F1F7F60183A190E027
:100670008821992141E029813A81892B09F040E0C4
:10068000F2014083B901C8010E947902F2E04F0EE5
:10069000511C82E0E80EF11CE3EA4E16E3E05E0630
:1006A00009F0AACF0F900F90DF91CF911F910F917A
:1006B000FF90EF90DF90CF90BF90AF909F908F9082
:1006C0007F905F904F9008950895009789F0FC0106
:1006D0002381621B67FD09C0772767FD7095248120
:1006E00030E081E0621773070CF080E081700895BC
:1006F00080E00895CF93DF93FC01822F309789F13A
:100700009181491770F52281821758F52381621B68
:1007100067FD27C0A62FBB27A7FDB095C481D0E0F9
:10072000AC17BD07F4F4692F0E947207480F65816A
:1007300070E0CD010E947B07DC011696842F869520
:1007400086958695AE0FBF1FA80FB11D2C9130E086
:10075000477002C0359527954A95E2F7822F817040
:1007600001C080E0DF91CF910895CF93DF93EC013A
:100770000E94D8009E0140E050E062E17AE780E00C
:1007800090E00E94A0073093A6032093A503DF9179
:10079000CF9108958091A3039091A4030E94E70054
:1007A0008091A3039091A4032091A5033091A60307
:1007B000820F931F9093A4038093A303089541E0B5
:1007C000611101C040E0692F0C94C301692F0C94A2
:1007D000DA0141E0611101C040E0692F0C94C301CE
:1007E0006F927F928F929F92AF92BF92CF92DF9241
:1007F000EF92FF920F931F93CF93DF931F92CDB78A
:10080000DEB7862EB42E6C01862F992787FD909532
:100810008C199109C7FC9395072F112707FD109597
:100820000D191109D7FC139597FD03C0AA24A394B1
:1008300002C0AA24AA9417FD03C09924939402C06D
:1008400099249A943C0197FF03C0719461947108B4
:1008500017FF03C01195019511096016710694F0F8
:100860007301F594E794C81409F16B2DC6010E9439
:10087000E903E01AF10AF7FE03C0E60CF71CD90CF5
:10088000CA0CF1CF7801F594E794D71679F06B2D67
:10089000C60179830E94E903E618F7087981F7FE1B
:1008A00003C0E00EF11ECA0CD90CEFCF6B2DC601B0
:1008B0000F90DF91CF911F910F91FF90EF90DF90FC
:1008C000CF90BF90AF909F908F907F906F900C943F
:1008D000E903FF920F931F93CF93DF93182FF92E05
:1008E000062FC72FD42F792F0E94F0034D2F612F91
:1008F0007C2F812F9F2D0E94F0034D2F602F7C2F86
:10090000802F9F2D0E94F0034D2F602F7C2F812F71
:100910009C2F0E94F003DF91CF911F910F91FF90C8
:1009200008950E9403021092120110920D01089581
:10093000DF92EF92FF920F931F93CF93DF93E82EF6
:100940008B01F62ED12E2091030130910401D0E0CD
:100950002130310599F5D12EDD1AE0910901F09190
:100960000A018181C0E0D817B8F4E0910901F09143
:100970000A018281C81770F42C2F4D2F6E2DCF01E4
:100980000E947A03682F8C2F800F9D2D0E94E9030F
:10099000CF5FEBCFDF5FDFCFE0910901F0910A017C
:1009A0008281C81740F460E08C2F800F9D2D0E943B
:1009B000E903CF5FF1CFDA9430C0DF5FFD2EF00E98
:1009C000E0910901F0910A018181C0E0D817A8F4F3
:1009D000E0910901F0910A018281C81770F72C2F6C
:1009E0004D2F6E2DCF010E947A03682F8F2D9C2FE3
:1009F000910F0E94E903CF5FEBCFE0910901F091E5
:100A00000A018281C81740F460E08F2D9C2F910F5E
:100A10000E94E903CF5FF1CFF3948F2D9D2DDF91DD
:100A2000CF911F910F91FF90EF90DF9008951F934A
:100A3000CF93DF93182FEC019C2F911B8991882372
:100A400049F00E949804BC019C2F911B653014F45E
:100A500077FFF2CF892FDF91CF911F9108950F93E8
:100A60001F93CF93DF93EC019B0110920D014093F4
:100A70000E01109211010091090110910A01011556
:100A8000110509F448C0F801818160910701709156
:100A9000080190E00E947B07BC0180910B019091BE
:100AA0000C010E948C07CB016AE070E00E947B077A
:100AB0009093100180930F0130930601209305015C
:100AC00040E250E0BE0182E191E00E94E1078091A6
:100AD0000101909102010197F1F4FE0101900020C3
:100AE000E9F7CF010197F801618170E06F5F7F4FF7
:100AF0008C1B0E94720781502091030130910401E8
:100B00002130310511F497E001C095E0981718F4F1
:100B10008EEF80931101DF91CF911F910F91089576
:100B200020910301309104012130310511F476E068
:100B300001C070E04FEF60E00E942F05089590E043
:100B40009093080180930701089590930201809388
:100B500001010895909304018093030108959093F7
:100B60000A01809309010895CF938091A703909182
:100B7000A80301969093A8038093A70320910F01E7
:100B8000309110018217930708F468C01092A803EF
:100B90001092A703E0910D01F0E0EF5FFE4F818915
:100BA00081110AC080910E01823008F457C0815033
:100BB00080930E0110920D01C0910D018C2F90E0D9
:100BC000FC01EF5FFE4F2189222309F447C02091E9
:100BD000010130910201409111012115310521F0EF
:100BE0002130310589F022C0411120C060910501FA
:100BF000709106018E5E9E4F0E9417059FEF9C0F1D
:100C0000980F90930D0112C060910501709106013B
:100C100020910301309104012130310511F4740F4A
:100C200001C0641B8E5E9E4F0E941705209111012A
:100C30002F5F20931101332727FD3095E0910901A3
:100C4000F0910A01818190E0821793073CF41092A1
:100C5000110180910D018F5F80930D01CF910C9454
:100C6000EF0190930C0180930B010E940E0284E12E
:100C700090E090930801809307010C9491048111F6
:100C800005C0662311F0429A0895429808953A9A51
:100C9000429A0895CF93C82F80E00E94AC02882327
:100CA000A9F0C23041F480913201909133010E9449
:100CB0009005C0E00BC0CF5FEC2FF0E0EE0FFF1F00
:100CC000EE5CFE4F808191810E94900582E00E943F
:100CD000AC028823A9F0C11108C08091360190911F
:100CE00037010E949005C2E00BC0C150EC2FF0E02C
:100CF000EE0FFF1FEE5CFE4F808191810E949005F8
:100D00008C2FCF910895811107C0623091F061302E
:100D1000C1F061111FC01AC0823039F4613049F04E
:100D2000662379F06230B1F411C0813099F4611119
:100D300006C084E793E00E94900581E00895623048
:100D400019F486E793E004C0613021F480E993E070
:100D50000E94900580E008950F931F93CF93DF9337
:100D600000D0CDB7DEB7082F162F81E00E94AC026D
:100D7000882339F0005D09831A82CE0101960E9412
:100D8000900583E00E94AC02882339F0105D19833E
:100D90001A82CE0101960E9490050F900F90DF916C
:100DA000CF911F910F91089589B1992787FD909553
:100DB000892F881F8827881F90E008950E94590076
:100DC0003A9A579884EF91E00E9431068FE591E0BE
:100DD0000E94AF0584E10E949F0581E090E00E949F
:100DE000A50584EF91E00E94B5030E94850088E785
:100DF00093E00C9490050E94CA030E94B4050C94E1
:100E0000DC020E946B008053089594E098B9805DE5
:100E10000C9473000E94DE06D12CD0E000E023E0A9
:100E2000E22EF12C13E0C0E00E94FB060E94690054
:100E3000882319F00E940107E82ED1100DC013304D
:100E400059F083E0E81641F06E2D812F0E94830651
:100E5000080FDF5FDD24D39484E00E94AC02882376
:100E600079F0F1100DC0EC2FF0E0EE0FFF1FEE5CFB
:100E7000FE4F808191810E949005FF24F394D4CF8E
:100E8000133021F48C2F0E944A06C82F84E00E9460
:100E9000AC02882339F081E0F81204C08C2F0E9444
:100EA00005071C2F0E94D406892B79F081E0F812E7
:100EB0000CC080913201909133010E9490054298BC
:100EC000D12C83E0E82E13E0C0E0DA3031F480E486
:100ED00093E00E949005D0E000E0602F8D2F0E94EB
:100EE000AC06A2CF002480FD060E660F11F0869599
:100EF000D1F7802D08950024552704C0080E591FEE
:100F0000880F991F009729F076956795B8F37105BA
:100F1000B9F7802D952F0895AA1BBB1B51E107C07F
:100F2000AA1FBB1FA617B70710F0A61BB70B881F79
:100F3000991F5A95A9F780959095BC01CD01089508
:100F4000052E97FB1EF400940E94B70757FD07D0AB
:100F50000E94BF0707FC03D04EF40C94B7075095CE
:100F60004095309521953F4F4F4F5F4F0895909595
:100F70008095709561957F4F8F4F9F4F0895A1E2A7
:100F80001A2EAA1BBB1BFD010DC0AA1FBB1FEE1F03
:100F9000FF1FA217B307E407F50720F0A21BB30B4E
:100FA000E40BF50B661F771F881F991F1A9469F7CA
:100FB00060957095809590959B01AC01BD01CF0126
:100FC0000895FB01DC014150504048F001900D9222
:100FD0000020C9F701C01D9241505040E0F708952C
:040FE000F894FFCFB3
:100FE40001000000000000140000000000000000E8
:100FF40000000000000000000000000000000000ED
:1010040000000000000000000000000000000000DC
:101014000000600366036F03000306080A03400030
:10102400800310038003200040002000100008000B
:101034000400020001038003400320008003100128
:101044000507205F050000000000C6186380014A00
:10105400290000004A7DF59502C417471F01632249
:1010640022320626155193058608000000880821BF
:1010740008028220848800805457090080904F0819
:1010840000000060880000800F00000000008C0158
:1010940000222202002EE63AA303C4104288032E43
:1010A4004244C4072E4207A30388A9F411023F84D3
:1010B40007A3032E8617A3033F424408012E4617B5
:1010C400A3032E460FA303C018600C00C018608849
:1010D400008888200802007CF001008220888800B3
:1010E4002E424400012E425BAB0344C51F63042F10
:1010F400C617E3032E8610A2032FC618E3033F840A
:1011040017C2073F841742002E861EA30731C61F4D
:1011140063048E10428803104218A3033195515280
:1011240004218410C20771D71A630471D61C6304A6
:101134002EC618A3032FC61742002EC65893052F98
:10114400C61763042E0607A3039F1042080131C685
:1011540018A30331C618150131C65AAB02312AA2AD
:101164006204312A4208011F2222C207278410C2C6
:101174000120088220000E218490034445000000D1
:10118400000000C00782200000000038E8A3072107
:10119400B419E30300B810A20310DA1CA30700B8C3
:1011A400F883034C8A238400C0C7E8A10321B4193F
:1011B40063040418428803083084920121A4324A4B
:1011C40002861042880300AC5A630400B419630415
:1011D40000B818A30300BCF8420000D8EC210400B6
:1011E400B419420000B8E0E003421C21240300C407
:1011F40018B30500C418150100C45AAB02004445D5
:10120400540400C4E8A103007C44C40788104108C6
:10121400028410420801821044880000888A000079
:101224005052455353205055534820425554544F1F
:101234004E20464F52204E455720524F554E4400A3
:1012440050415045520053434953534F5253005257
:101254004F434B0057004C005052455353204E41CE
:101264005620425554544F4E20544F20535441520B
:02127400540024
:00000001FF
