:100000000C943A000C9444000C9444000C9444006A
:100010000C9444000C9444000C9444000C94440050
:100020000C9444000C9444000C9444000C94440040
:100030000C9444000C9444000C9444000C94440030
:100040000C9444000C9444000C9444000C94440020
:100050000C9444000C9444000C9444000C94440010
:100060000C9444000C9444000C9444000C94440000
:100070000C94440011241FBECFEFD4E0DEBFCDBFEF
:100080000E9461000C948B000C940000E1E6F0E00B
:1000900080E880831082A89584B7877F84BFE0E6DC
:1000A000F0E080818861808310820895811105C00D
:1000B000662311F0429A0895429808953A9A429A16
:1000C00008950E9446000E945E001092800085E024
:1000D000809381001092820010928500109284001B
:1000E00061E080E00E94560080918400909185003C
:1000F000803D9340C8F360E080E00E94560010927B
:100100008500109284008091840090918500803D4C
:0A0110009340C8F3E1CFF894FFCF4D
:00000001FF
