:100000000C943A000C9457000C9457000C94570031
:100010000C9457000C9457000C9457000C94570004
:100020000C9457000C9457000C9457000C945700F4
:100030000C9457000C9457000C9457000C945700E4
:100040000C9457000C9457000C9457000C945700D4
:100050000C9457000C9457000C9457000C945700C4
:100060000C9457000C9457000C9457000C945700B4
:100070000C94570011241FBECFEFD4E0DEBFCDBFDC
:1000800011E0A0E0B1E0E4EFF2E002C005900D92D3
:10009000AE31B107D9F711E0AEE1B1E001C01D9278
:1000A000A232B107E1F70E94C0000C9478010C94D1
:1000B0000000FC01FF2784A1892B84A385A1892B43
:1000C00085A381E00895E1E6F0E080E88083108276
:1000D000A89584B7877F84BFE0E6F0E080818861DF
:1000E0008083108208951092800084E080938100C4
:1000F0001092850010928400089580918400909160
:1001000085000895AC0180918400909185009C0148
:10011000241B350B283E3340B0F70895209184000E
:1001200030918500820F931F0C948200CF93DF9350
:10013000EC010E9473009E0140E050E062E17AE72A
:1001400080E090E00E94370130932101209320014C
:10015000DF91CF91089580911E0190911F010E941F
:10016000820080911E0190911F0120912001309109
:100170002101820F931F90931F0180931E01089508
:100180000E94630084EF91E00E94960083E090E477
:100190000E94590080E090E80E94590083E090E1BD
:1001A0000E94590083E090E80E94590083E090E2A9
:1001B0000E94590080E090E40E94590080E090E2A3
:1001C0000E94590080E090E10E94590080E098E090
:1001D0000E94590080E094E00E94590080E092E083
:1001E0000E94590080E091E00E94590010E00E94B6
:1001F000AB00A12FB0E0FD01E050FF4F808190E007
:10020000012E02C0959587950A94E2F7817099278F
:1002100048E0AA0FBB1FFD01E05FFE4FAA5FBE4F83
:1002200020813181E901DD27009779F05DA1232F3D
:10023000209525232DA32D913C911197E901DD27D0
:100240005DA1232F209525230AC02DA1232B2DA3AB
:100250002D913C911197E901DD272DA1232B2DA391
:100260004150F1F61F5F153008F0C0CFC0CF052E0A
:1002700097FB1EF400940E944E0157FD07D00E9488
:10028000560107FC03D04EF40C944E015095409556
:10029000309521953F4F4F4F5F4F08959095809532
:1002A000709561957F4F8F4F9F4F0895A1E21A2E51
:1002B000AA1BBB1BFD010DC0AA1FBB1FEE1FFF1F0A
:1002C000A217B307E407F50720F0A21BB30BE40B5A
:1002D000F50B661F771F881F991F1A9469F76095A1
:1002E0007095809590959B01AC01BD01CF0108955B
:0402F000F894FFCFB0
:1002F4003046404630200340008003100380032032
:0E03040000400020001000080004000200016C
:00000001FF
