:100000000C943A000C9444000C9444000C9444006A
:100010000C9444000C9444000C9444000C94440050
:100020000C9444000C9444000C9444000C94440040
:100030000C9444000C9444000C9444000C94440030
:100040000C9444000C9444000C9444000C94440020
:100050000C9444000C9444000C9444000C94440010
:100060000C9444000C9444000C9444000C94440000
:100070000C94440011241FBECFEFD4E0DEBFCDBFEF
:100080000E9460000C949B000C940000FC01FF2770
:1000900084A1892B84A385A1892B85A381E0089560
:1000A000E1E6F0E080E880831082A89584B7877F3E
:1000B00084BFE0E6F0E0808188618083108208954B
:1000C0000E94500083E090E40E94460080E090E8A7
:1000D0000E94460083E090E10E94460083E090E8A1
:1000E0000E94460083E090E20E94460080E090E497
:1000F0000E94460080E090E20E94460080E090E18D
:100100000E94460080E098E00E94460080E094E073
:100110000E94460080E092E00E94460080E091E06C
:100120000E9446004598289829982A982B982C9840
:0A0130002D982E98F7CFF894FFCF1A
:00000001FF
