:100000000C943A000C9457000C9457000C94570031
:100010000C9457000C9457000C9457000C94570004
:100020000C9457000C9457000C9457000C945700F4
:100030000C9457000C9457000C9457000C945700E4
:100040000C9457000C9457000C9457000C945700D4
:100050000C9457000C9457000C9457000C945700C4
:100060000C9457000C9457000C9457000C945700B4
:100070000C94570011241FBECFEFD4E0DEBFCDBFDC
:1000800013E0A0E0B1E0E6E6FFE002C005900D92CB
:10009000AC34B107D9F713E0ACE4B3E001C01D9272
:1000A000A336B107E1F70E949C060C94B1070C94AB
:1000B0000000CF93DF9300D0CDB7DEB789831A82DB
:1000C000CE0101960E94CA030F900F90DF91CF914D
:1000D0000895CF93DF93EC0180E00E94AC04882365
:1000E00071F0C035D10531F0C235D10531F4C3E529
:1000F000D0E005C0C2E5D0E002C0C0E5D0E082E0BB
:100100000E94AC04882371F0C035D10531F0C235AE
:10011000D10531F4C0E5D0E005C0C3E5D0E002C0B0
:10012000C2E5D0E0CE01DF91CF9108958617970701
:10013000B9F08035910531F462357105A1F081E0A7
:1001400090E008958235910521F463357105B9F782
:100150000AC08335910599F76035710581F703C0B1
:1001600082E090E0089580E090E00895E1E6F0E01C
:1001700080E880831082A89584B7877F84BFE0E6FB
:10018000F0E0808188618083108208951092800061
:1001900084E080938100109285001092840008957D
:1001A00080918400909185000895AC018091840035
:1001B000909185009C01241B350B283E3340B0F7FD
:1001C00008952091840030918500820F931F0C9434
:1001D000D5008530A0F4673090F421E030E0062EA1
:1001E00001C0220F0A94EAF7E82FF0E0E35BFC4F2E
:1001F000822F8095908189234111822B80830895DD
:10020000853088F4673078F4E82FF0E0E35BFC4F4A
:1002100021E030E0062E01C0220F0A94EAF7908117
:10022000922381E009F480E0089560914C03E62F69
:10023000F0E0E35BFC4F80810E94640180914C03FD
:100240008F5F853018F480934C03089510924C030F
:10025000089510924D0310924E0310924F03109286
:1002600050031092510308950E9442010C942901F9
:10027000FC01FF2784A1892B84A385A1892B85A359
:1002800081E00895CF93DF93CDE1D3E089919991F7
:100290000E94380183E0CB32D807C1F783E090E4B5
:1002A0000E94380180E090E80E94380183E090E1EC
:1002B0000E94380183E090E80E94380183E090E2D8
:1002C000DF91CF910C943801E0915203F0E0EE0FF2
:1002D000FF1FED5EFC4F20813181F901FF2795A1C1
:1002E000932B95A3EDE1F3E020813181D901BB2768
:1002F00080FF07C095962C919597932F9095922308
:1003000004C095969C919597932B95969C93869572
:10031000329693E0EB32F90739F7E62FF0E0EE0F73
:10032000FF1FED5EFC4F80819181FC01FF2725A11D
:10033000892F8095822385A36093520308950097A7
:1003400089F0FC012381621B67FD09C0772767FDE7
:100350007095248130E081E0621773070CF080E033
:100360008170089580E00895CF93DF93FC01822F80
:10037000309789F19181491770F52281821758F5DC
:100380002381621B67FD27C0A62FBB27A7FDB09561
:10039000C481D0E0AC17BD07F4F4692F0E94330785
:1003A000480F658170E0CD010E943C07DC01169684
:1003B000842F869586958695AE0FBF1FA80FB11D19
:1003C0002C9130E0477002C0359527954A95E2F7A9
:1003D000822F817001C080E0DF91CF910895CF938B
:1003E000DF93EC010E94C6009E0140E050E062E114
:1003F0007AE780E090E00E946107309356032093F3
:100400005503DF91CF910895809153039091540348
:100410000E94D5008091530390915403209155037D
:1004200030915603820F931F90935403809353038C
:10043000089541E0611101C040E0692F0C94E9008A
:10044000692F0C94000141E0611101C040E0692F67
:100450000C94E9006F927F928F929F92AF92BF921D
:10046000CF92DF92EF92FF920F931F93CF93DF9380
:100470001F92CDB7DEB7862EB42E6C01862F99273A
:1004800087FD90958C199109C7FC9395072F11272B
:1004900007FD10950D191109D7FC139597FD03C0A1
:1004A000AA24A39402C0AA24AA9417FD03C09924E5
:1004B000939402C099249A943C0197FF03C07194CD
:1004C0006194710817FF03C0119501951109601619
:1004D000710694F07301F594E794C81409F16B2D3B
:1004E000C6010E942302E01AF10AF7FE03C0E60CDF
:1004F000F71CD90CCA0CF1CF7801F594E794D71604
:1005000079F06B2DC60179830E942302E618F70863
:100510007981F7FE03C0E00EF11ECA0CD90CEFCFB3
:100520006B2DC6010F90DF91CF911F910F91FF901E
:10053000EF90DF90CF90BF90AF909F908F907F9083
:100540006F900C942302FF920F931F93CF93DF932E
:10055000182FF92E062FC72FD42F792F0E942A0289
:100560004D2F612F7C2F812F9F2D0E942A024D2F0E
:10057000602F7C2F802F9F2D0E942A024D2F602FED
:100580007C2F812F9C2F0E942A02DF91CF911F91F7
:100590000F91FF9008950E9429011092110110926D
:1005A0000C010895DF92EF92FF920F931F93CF9368
:1005B000DF93E82E8B01F62ED12E2091020130918F
:1005C0000301D0E02130310599F5D12EDD1AE091FB
:1005D0000801F09109018181C0E0D817B8F4E091D9
:1005E0000801F09109018281C81770F42C2F4D2F5A
:1005F0006E2DCF010E94B401682F8C2F800F9D2D8E
:100600000E942302CF5FEBCFDF5FDFCFE0910801D5
:10061000F09109018281C81740F460E08C2F800FAF
:100620009D2D0E942302CF5FF1CFDA9430C0DF5FAF
:10063000FD2EF00EE0910801F09109018181C0E0EA
:10064000D817A8F4E0910801F09109018281C81738
:1006500070F72C2F4D2F6E2DCF010E94B401682F03
:100660008F2D9C2F910F0E942302CF5FEBCFE09143
:100670000801F09109018281C81740F460E08F2DD4
:100680009C2F910F0E942302CF5FF1CFF3948F2D07
:100690009D2DDF91CF911F910F91FF90EF90DF90F3
:1006A00008951F93CF93DF93182FEC019C2F911B7C
:1006B0008991882349F00E94D202BC019C2F911B92
:1006C000653014F477FFF2CF892FDF91CF911F911E
:1006D00008950F931F93CF93DF93EC019B0110922A
:1006E0000C0140930D01109210010091080110912E
:1006F00009010115110509F448C0F80181816091D3
:1007000006017091070190E00E943C07BC018091B6
:100710000A0190910B010E944D07CB016AE070E045
:100720000E943C0790930F0180930E0130930501C6
:100730002093040140E250E0BE0181E191E00E947B
:10074000A20780910001909101010197F1F4FE014F
:1007500001900020E9F7CF010197F801618170E075
:100760006F5F7F4F8C1B0E943307815020910201E5
:10077000309103012130310511F497E001C095E07B
:10078000981718F48EEF80931001DF91CF911F918D
:100790000F9108952091020130910301213031051C
:1007A00011F476E001C070E04FEF60E00E94690351
:1007B000089590E090930701809306010895909327
:1007C0000101809300010895909303018093020139
:1007D000089590930901809308010895CF93809123
:1007E00057039091580301969093580380935703B1
:1007F00020910E0130910F018217930708F468C011
:100800001092580310925703E0910C01F0E0E05071
:10081000FF4F818981110AC080910D01823008F457
:1008200057C0815080930D0110920C01C0910C01B2
:100830008C2F90E0FC01E050FF4F2189222309F426
:1008400047C0209100013091010140911001211514
:10085000310521F02130310589F022C0411120C03D
:1008600060910401709105018F5E9E4F0E945103BB
:100870009FEF9C0F980F90930C0112C060910401A0
:100880007091050120910201309103012130310561
:1008900011F4740F01C0641B8F5E9E4F0E945103C0
:1008A000209110012F5F20931001332727FD3095F1
:1008B000E0910801F0910901818190E0821793078E
:1008C0003CF41092100180910C018F5F80930C0119
:1008D000CF910C94150190930B0180930A010E9413
:1008E000340184E190E090930701809306010C9419
:1008F000CB026230710511F160F46130710551F580
:10090000FC01FF2784A19095892384A385A18923D5
:100910001EC06330710541F064307105D9F4FC01EB
:10092000FF2784A1892B10C0FC01FF2784A1892BFC
:1009300084A325A1892F8095822309C0FC01FF276C
:1009400084A1292F2095822384A385A1892B85A3A7
:1009500081E0089580E00895E82FF0E0EE0FFF1F9A
:10096000E75AFC4F8081882321F0818191E089271B
:1009700001C080E081700895E82FF0E0EE0FFF1FC6
:10098000E75AFC4F8081811102C0818101C080E063
:1009900081700895E82FF0E0EE0FFF1FE75AFC4F3B
:1009A00080810895E82FF0E0EE0FFF1FE75AFC4F1B
:1009B000908181E0892708954F925F927F928F9274
:1009C0009F92AF92BF92CF92DF92EF92FF920F93DE
:1009D0001F93CF93DF9300D0CDB7DEB759E5452EF7
:1009E00053E0552E6AE5E62E63E0F62E7BE2A72E55
:1009F00073E0B72EE6E07E2EF2018081F70180835E
:100A0000F501019111915F016801DD24F60184A1D6
:100A1000812E992425A130E02821392141E0232B82
:100A200009F440E090E088219921892B29F04423A2
:100A300041F024E030E00AC0442331F022E030E00D
:100A400005C023E030E002C021E030E064E070E067
:100A5000C80129833A830E94790462E070E0C801EA
:100A60000E947904872D8A95F1F7F60183A190E021
:100A70008821992141E029813A81892B09F040E0C0
:100A8000F2014083B901C8010E947904F2E04F0EDF
:100A9000511C82E0E80EF11CE3E64E16E3E05E0630
:100AA00009F0AACF0F900F90DF91CF911F910F9176
:100AB000FF90EF90DF90CF90BF90AF909F908F907E
:100AC0007F905F904F90089508950C9468060C9461
:100AD00089060C946E060C9474060C947A060E9497
:100AE0007A060E9474068823E1F38CE291E0019774
:100AF000F1F70E94680681110C94670508950C9423
:100B00009006CF93DF9300D01F92CDB7DEB780ED74
:100B100090E09A83898388E08B83509A589A0E9448
:100B20003D068FE690E00E94D40581E090E00E94AF
:100B30002C0661E070E081E090E00E9418060E94BF
:100B40000406CE0101960E9450060F900F900F9060
:100B5000DF91CF910895CF93DF93D62FFB0160E013
:100B600070E0A1E0B0E05E2F5D1B5417B8F4C191B6
:100B7000BD010C2E02C0660F771F0A94E2F76F5F6B
:100B80007F4F76956795680F791F02C076956795B8
:100B9000CA95E2F76F3F710509F028F7F901608304
:100BA000852FDF91CF910895CF93DF931F92CDB71B
:100BB000DEB79E012F5F3F4F45E065E373E00E9483
:100BC000AB0591E0980F909331019981915097BDB9
:100BD00018BC95B5977039F025B590913101977093
:100BE000287F922B95BD298130E0E82FF0E0EB5C67
:100BF000FC4FC901008002C0880F991F0A94E2F7D8
:100C00000F90DF91CF91089585B3897F85BB95B50E
:100C1000809131018770987F892B85BD089585B5B6
:100C2000887F85BD089585B382FB882780F9089564
:100C3000009719F0019741F0089584B56295660F09
:100C4000660F607C8F7305C084B563706295607FAA
:100C50008F7C682B64BD0895009741F0019759F48B
:100C600084B58E7F84BD84B5826002C084B58C7FDC
:100C700084BD81E0089580E0089514BC15BC16BCC5
:100C800018BC81E090E00E942C0681E008959C0150
:100C9000215031093093CD0081508093CC000895CC
:100CA000CF93DF93EC01888199810E9447068A8166
:100CB0009BEF980F943008F088E098E19093C9007A
:100CC0008550880F8093CA0081E0DF91CF9108950D
:100CD0008091C800881F8827881F08958091C800C8
:100CE00085FB882780F908958091C80086FB8827B6
:100CF00080F90895CF93C82F0E946E068823E1F3F0
:100D00009091C80090649093C800C093CE00CF919A
:100D100008958091C80087FFFCCF8091CE00089590
:100D2000CF93DF93EC018991882319F00E947A0612
:100D3000FACFDF91CF9108950E94B60088EE93E03C
:100D40000E946B0482E391E00E94E9038EE10E941D
:100D5000D90381E090E00E94DF030E9464050E94B5
:100D6000810588EE93E00E94EF0110E5F12C00E090
:100D7000C12CD12CE12C0E94DC04812FC11011C0A8
:100D80009F2D0E946900182FF92E0E94590084E0BF
:100D90000E94AC04882359F00E94CB02CC24C39457
:100DA00006C00E946F05CC24C394EE24E394D110B6
:100DB00012C00E946505882309F449C00E94670596
:100DC000C82FDD27C7FDD095C035D10531F082553C
:100DD0008230E8F502C0CA2DDB2DEE20A9F1BE015C
:100DE000812F9F2D0E949600892B29F401111DC08F
:100DF0008AE393E017C0BE01812F9F2D0E949600C9
:100E0000019729F4011111C081E493E00BC0BE01E8
:100E1000812F9F2D0E949600029739F4011105C081
:100E200087E493E00E94CA0301E084E00E94AC04DE
:100E3000882351F010E5F12C00E0C12CD12CE12CDD
:100E40000E94EE035E0197CFDD24D394F9CFEE200C
:100E500039F041E064E076E080E090E00E942A0210
:100E6000CA2DDB2DEDCF002480FD060E660F11F09C
:100E70008695D1F7802D08950024552704C0080ECB
:100E8000591F880F991F009729F076956795B8F339
:100E90007105B9F7802D952F0895AA1BBB1B51E151
:100EA00007C0AA1FBB1FA617B70710F0A61BB70BDA
:100EB000881F991F5A95A9F780959095BC01CD017F
:100EC0000895052E97FB1EF400940E94780757FDA5
:100ED00007D00E94800707FC03D04EF40C947807DB
:100EE00050954095309521953F4F4F4F5F4F089556
:100EF00090958095709561957F4F8F4F9F4F089586
:100F0000A1E21A2EAA1BBB1BFD010DC0AA1FBB1F0D
:100F1000EE1FFF1FA217B307E407F50720F0A21B7F
:100F2000B30BE40BF50B661F771F881F991F1A94EC
:100F300069F760957095809590959B01AC01BD0116
:100F4000CF010895FB01DC014150504048F0019071
:100F50000D920020C9F701C01D9241505040E0F7AA
:060F60000895F894FFCF94
:100F66000000000000001400000000000000000067
:100F7600000000000000000000000000000000006B
:100F8600000000000000000000000000000000005B
:100F96000001010507205F050000000000C6186378
:100FA60080014A290000004A7DF59502C417471FB3
:100FB6000163222232062615519305860800000099
:100FC60088082108028220848800805457090080FE
:100FD600904F0800000060880000800F00000000AD
:100FE600008C0100222202002EE63AA303C410421E
:100FF60088032E4244C4072E4207A30388A9F4118E
:10100600023F8407A3032E8617A3033F4244080129
:101016002E4617A3032E460FA303C018600C00C06C
:10102600186088008888200802007CF00100822071
:101036008888002E424400012E425BAB0344C51F44
:1010460063042FC617E3032E8610A2032FC618E3E8
:10105600033F8417C2073F841742002E861EA3074C
:1010660031C61F63048E10428803104218A3033151
:1010760095515204218410C20771D71A630471D6A0
:101086001C63042EC618A3032FC61742002EC6588B
:1010960093052FC61763042E0607A3039F10420865
:1010A6000131C618A30331C618150131C65AAB0261
:1010B600312AA26204312A4208011F2222C20727CE
:1010C6008410C20120088220000E2184900344452A
:1010D600000000000000C00782200000000038E881
:1010E600A30721B419E30300B810A20310DA1CA366
:1010F6000700B8F883034C8A238400C0C7E8A1031D
:1011060021B419630404184288030830849201212B
:10111600A4324A02861042880300AC5A630400B423
:1011260019630400B818A30300BCF8420000D8EC09
:10113600210400B419420000B8E0E003421C212457
:101146000300C418B30500C418150100C45AAB0245
:10115600004445540400C4E8A103007C44C4078845
:101166001041080284104208018210448800008859
:101176008A00000340008003100380032000400023
:101186002000100008000400020001038003400351
:101196002000800310000306080A57494E4E4552A8
:0C11A600004C4F5345520044524157008A
:00000001FF
