:100000000C943A000C9444000C9444000C9444006A
:100010000C9444000C9444000C9444000C94440050
:100020000C9444000C9444000C9444000C94440040
:100030000C9444000C9444000C9444000C94440030
:100040000C9444000C9444000C9444000C94440020
:100050000C9444000C9444000C9444000C94440010
:100060000C9444000C9444000C9444000C94440000
:100070000C94440011241FBECFEFD4E0DEBFCDBFEF
:100080000E9469000C948B000C940000E1E6F0E003
:1000900080E880831082A89584B7877F84BFE0E6DC
:1000A000F0E08081886180831082089589B199276A
:1000B00087FD9095892F881F8827881F90E00895D5
:1000C00057985F980895429A089542980895429AE1
:1000D00008950E9446000E9467000E946000C0E0F0
:1000E0000E945600892B51F0C11108C00E94560091
:1000F000892BE1F70E946300C1E0F2CF0E94560015
:10010000892B71F3CC2361F30E945600892BE1F710
:0A0110000E946500E4CFF894FFCFD1
:00000001FF
