:100000000C943A000C944C000C944C000C944C0052
:100010000C944C000C944C000C944C000C944C0030
:100020000C944C000C944C000C944C000C944C0020
:100030000C944C000C944C000C944C000C944C0010
:100040000C944C000C944C000C944C000C944C0000
:100050000C944C000C944C000C944C000C944C00F0
:100060000C944C000C944C000C944C000C944C00E0
:100070000C944C0011241FBECFEFD4E0DEBFCDBFE7
:1000800011E0A0E0B1E001C01D92A230B107E1F79C
:100090000E9493000C945E010C940000FC01FF2769
:1000A00085A1892B85A30895FC01FF2784A1892BB5
:1000B00084A385A1892B85A381E00895E1E6F0E082
:1000C00080E880831082A89584B7877F84BFE0E6AC
:1000D000F0E0808188618083108208959C011092F5
:1000E000800085E0809381001092820040E050E023
:1000F00064E87EE180E090E00E941D013093010100
:1001000020930001089580910001909101012091B8
:1001100084003091850028173907C8F310928500B4
:100120001092840008950E945E0083E090E40E9493
:10013000540080E090E80E94540083E090E10E9427
:10014000540083E090E80E94540083E090E20E9413
:10015000540080E090E40E94540080E090E20E940D
:10016000540080E090E10E94540080E098E00E94FA
:10017000540080E094E00E94540080E092E00E94ED
:10018000540080E091E00E94540084E690E00E94D8
:100190006E00C0E0D1E00E948300C11125C0289804
:1001A000469880E090E20E944E0080E090E10E943C
:1001B0004E0080E098E00E944E0080E094E00E94B3
:1001C0004E0080E092E00E944E0080E090E80E94A5
:1001D0004E0083E090E10E944E0083E090E80E9490
:1001E0004E0083E090E225C045982E98289880E044
:1001F00090E10E944E0080E098E00E944E0080E076
:1002000094E00E944E0080E092E00E944E0080E068
:1002100091E00E944E0083E090E40E944E0080E056
:1002200090E80E944E0083E090E10E944E0083E03F
:1002300090E80E944E00CD27AECF052E97FB1EF40E
:1002400000940E94340157FD07D00E943C0107FC36
:1002500003D04EF40C94340150954095309521957F
:100260003F4F4F4F5F4F08959095809570956195E2
:100270007F4F8F4F9F4F0895A1E21A2EAA1BBB1BE1
:10028000FD010DC0AA1FBB1FEE1FFF1FA217B30762
:10029000E407F50720F0A21BB30BE40BF50B661F78
:1002A000771F881F991F1A9469F76095709580953C
:1002B00090959B01AC01BD01CF010895F894FFCF4B
:00000001FF
