:100000000C943A000C944C000C944C000C944C0052
:100010000C944C000C944C000C944C000C944C0030
:100020000C944C000C944C000C944C000C944C0020
:100030000C944C000C944C000C944C000C944C0010
:100040000C944C000C944C000C944C000C944C0000
:100050000C944C000C944C000C944C000C944C00F0
:100060000C944C000C944C000C944C000C944C00E0
:100070000C944C0011241FBECFEFD4E0DEBFCDBFE7
:1000800011E0A0E0B1E001C01D92A230B107E1F79C
:100090000E948E000C94E2000C940000E1E6F0E077
:1000A00080E880831082A89584B7877F84BFE0E6CC
:1000B000F0E080818861808310820895811105C0FD
:1000C000662311F0429A0895429808953A9A429A06
:1000D00008959C011092800085E080938100109229
:1000E000820040E050E064E87EE180E090E00E9421
:1000F000A100309301012093000108958091000137
:1001000090910101209184003091850028173907D2
:10011000C8F3109285001092840008950E944E004A
:100120000E94660082E090E00E946900C0E0D1E099
:100130000E947E006C2F617080E00E945E00CD27DF
:10014000F7CF052E97FB1EF400940E94B80057FDD0
:1001500007D00E94C00007FC03D04EF40C94B800F6
:1001600050954095309521953F4F4F4F5F4F0895E3
:1001700090958095709561957F4F8F4F9F4F089513
:10018000A1E21A2EAA1BBB1BFD010DC0AA1FBB1F9B
:10019000EE1FFF1FA217B307E407F50720F0A21B0D
:1001A000B30BE40BF50B661F771F881F991F1A947A
:1001B00069F760957095809590959B01AC01BD01A4
:0801C000CF010895F894FFCF70
:00000001FF
